{
  "contractName": "InsurancePolicy",
  "abi": [
    {
      "inputs": [],
      "stateMutability": "nonpayable",
      "type": "constructor"
    },
    {
      "anonymous": false,
      "inputs": [
        {
          "indexed": true,
          "internalType": "uint256",
          "name": "policyId",
          "type": "uint256"
        },
        {
          "indexed": true,
          "internalType": "address",
          "name": "policyholder",
          "type": "address"
        },
        {
          "indexed": false,
          "internalType": "uint256",
          "name": "amount",
          "type": "uint256"
        }
      ],
      "name": "ClaimFiled",
      "type": "event"
    },
    {
      "anonymous": false,
      "inputs": [
        {
          "indexed": true,
          "internalType": "uint256",
          "name": "policyId",
          "type": "uint256"
        },
        {
          "indexed": true,
          "internalType": "address",
          "name": "policyholder",
          "type": "address"
        },
        {
          "indexed": false,
          "internalType": "uint256",
          "name": "premium",
          "type": "uint256"
        },
        {
          "indexed": false,
          "internalType": "uint256",
          "name": "coverage",
          "type": "uint256"
        },
        {
          "indexed": false,
          "internalType": "uint256",
          "name": "expirationDate",
          "type": "uint256"
        }
      ],
      "name": "PolicyCreated",
      "type": "event"
    },
    {
      "inputs": [
        {
          "internalType": "uint256",
          "name": "",
          "type": "uint256"
        }
      ],
      "name": "policies",
      "outputs": [
        {
          "internalType": "address",
          "name": "policyholder",
          "type": "address"
        },
        {
          "internalType": "uint256",
          "name": "premium",
          "type": "uint256"
        },
        {
          "internalType": "uint256",
          "name": "coverage",
          "type": "uint256"
        },
        {
          "internalType": "uint256",
          "name": "expirationDate",
          "type": "uint256"
        },
        {
          "internalType": "bool",
          "name": "active",
          "type": "bool"
        }
      ],
      "stateMutability": "view",
      "type": "function",
      "constant": true
    },
    {
      "inputs": [],
      "name": "policyCounter",
      "outputs": [
        {
          "internalType": "uint256",
          "name": "",
          "type": "uint256"
        }
      ],
      "stateMutability": "view",
      "type": "function",
      "constant": true
    },
    {
      "inputs": [
        {
          "internalType": "address",
          "name": "",
          "type": "address"
        },
        {
          "internalType": "uint256",
          "name": "",
          "type": "uint256"
        }
      ],
      "name": "policyholderPortfolios",
      "outputs": [
        {
          "internalType": "uint256",
          "name": "",
          "type": "uint256"
        }
      ],
      "stateMutability": "view",
      "type": "function",
      "constant": true
    },
    {
      "inputs": [
        {
          "internalType": "uint256",
          "name": "premium",
          "type": "uint256"
        },
        {
          "internalType": "uint256",
          "name": "coverage",
          "type": "uint256"
        },
        {
          "internalType": "uint256",
          "name": "duration",
          "type": "uint256"
        }
      ],
      "name": "createPolicy",
      "outputs": [
        {
          "internalType": "uint256",
          "name": "",
          "type": "uint256"
        }
      ],
      "stateMutability": "nonpayable",
      "type": "function"
    },
    {
      "inputs": [
        {
          "internalType": "uint256",
          "name": "policyId",
          "type": "uint256"
        }
      ],
      "name": "fileClaim",
      "outputs": [],
      "stateMutability": "nonpayable",
      "type": "function"
    },
    {
      "inputs": [
        {
          "internalType": "address",
          "name": "policyholder",
          "type": "address"
        }
      ],
      "name": "getPolicyholderPortfolio",
      "outputs": [
        {
          "internalType": "uint256[]",
          "name": "",
          "type": "uint256[]"
        }
      ],
      "stateMutability": "view",
      "type": "function",
      "constant": true
    }
  ],
  "bytecode": "0x608060405234801561001057600080fd5b506000600281905550610bcb806100286000396000f3fe608060405234801561001057600080fd5b50600436106100625760003560e01c80636de3fad014610067578063aa65586114610097578063d0ab9a89146100c7578063d3e89483146100f7578063d52c1bea1461012b578063d61909f914610149575b600080fd5b610081600480360381019061007c919061069e565b610165565b60405161008e91906106ed565b60405180910390f35b6100b160048036038101906100ac9190610708565b610196565b6040516100be91906107f3565b60405180910390f35b6100e160048036038101906100dc9190610815565b61022d565b6040516100ee91906106ed565b60405180910390f35b610111600480360381019061010c9190610868565b61044c565b6040516101229594939291906108bf565b60405180910390f35b6101336104af565b60405161014091906106ed565b60405180910390f35b610163600480360381019061015e9190610868565b6104b5565b005b6001602052816000526040600020818154811061018157600080fd5b90600052602060002001600091509150505481565b6060600160008373ffffffffffffffffffffffffffffffffffffffff1673ffffffffffffffffffffffffffffffffffffffff16815260200190815260200160002080548060200260200160405190810160405280929190818152602001828054801561022157602002820191906000526020600020905b81548152602001906001019080831161020d575b50505050509050919050565b600083831115610272576040517f08c379a000000000000000000000000000000000000000000000000000000000815260040161026990610995565b60405180910390fd5b6000824261028091906109e4565b905060006040518060a001604052803373ffffffffffffffffffffffffffffffffffffffff16815260200187815260200186815260200183815260200160011515815250905080600080600254815260200190815260200160002060008201518160000160006101000a81548173ffffffffffffffffffffffffffffffffffffffff021916908373ffffffffffffffffffffffffffffffffffffffff16021790555060208201518160010155604082015181600201556060820151816003015560808201518160040160006101000a81548160ff0219169083151502179055509050503373ffffffffffffffffffffffffffffffffffffffff166002547fdd4dcb2ef94f82921d5c77e9cf4e5c8dd423fb1de1310a243115b95316f257778888866040516103b093929190610a18565b60405180910390a3600160003373ffffffffffffffffffffffffffffffffffffffff1673ffffffffffffffffffffffffffffffffffffffff1681526020019081526020016000206002549080600181540180825580915050600190039060005260206000200160009091909190915055600060025490506002600081548092919061043a90610a4f565b91905055508093505050509392505050565b60006020528060005260406000206000915090508060000160009054906101000a900473ffffffffffffffffffffffffffffffffffffffff16908060010154908060020154908060030154908060040160009054906101000a900460ff16905085565b60025481565b600080600083815260200190815260200160002090508060040160009054906101000a900460ff1661051c576040517f08c379a000000000000000000000000000000000000000000000000000000000815260040161051390610ae3565b60405180910390fd5b3373ffffffffffffffffffffffffffffffffffffffff168160000160009054906101000a900473ffffffffffffffffffffffffffffffffffffffff1673ffffffffffffffffffffffffffffffffffffffff16146105ae576040517f08c379a00000000000000000000000000000000000000000000000000000000081526004016105a590610b75565b60405180910390fd5b3373ffffffffffffffffffffffffffffffffffffffff16827f4da691d72ff2d837d51477b0b23e1fcde537dc9bf3181e20249086f024b348bd83600201546040516105f991906106ed565b60405180910390a35050565b600080fd5b600073ffffffffffffffffffffffffffffffffffffffff82169050919050565b60006106358261060a565b9050919050565b6106458161062a565b811461065057600080fd5b50565b6000813590506106628161063c565b92915050565b6000819050919050565b61067b81610668565b811461068657600080fd5b50565b60008135905061069881610672565b92915050565b600080604083850312156106b5576106b4610605565b5b60006106c385828601610653565b92505060206106d485828601610689565b9150509250929050565b6106e781610668565b82525050565b600060208201905061070260008301846106de565b92915050565b60006020828403121561071e5761071d610605565b5b600061072c84828501610653565b91505092915050565b600081519050919050565b600082825260208201905092915050565b6000819050602082019050919050565b61076a81610668565b82525050565b600061077c8383610761565b60208301905092915050565b6000602082019050919050565b60006107a082610735565b6107aa8185610740565b93506107b583610751565b8060005b838110156107e65781516107cd8882610770565b97506107d883610788565b9250506001810190506107b9565b5085935050505092915050565b6000602082019050818103600083015261080d8184610795565b905092915050565b60008060006060848603121561082e5761082d610605565b5b600061083c86828701610689565b935050602061084d86828701610689565b925050604061085e86828701610689565b9150509250925092565b60006020828403121561087e5761087d610605565b5b600061088c84828501610689565b91505092915050565b61089e8161062a565b82525050565b60008115159050919050565b6108b9816108a4565b82525050565b600060a0820190506108d46000830188610895565b6108e160208301876106de565b6108ee60408301866106de565b6108fb60608301856106de565b61090860808301846108b0565b9695505050505050565b600082825260208201905092915050565b7f436f7665726167652063616e6e6f7420657863656564207072656d69756d206160008201527f6d6f756e74000000000000000000000000000000000000000000000000000000602082015250565b600061097f602583610912565b915061098a82610923565b604082019050919050565b600060208201905081810360008301526109ae81610972565b9050919050565b7f4e487b7100000000000000000000000000000000000000000000000000000000600052601160045260246000fd5b60006109ef82610668565b91506109fa83610668565b9250828201905080821115610a1257610a116109b5565b5b92915050565b6000606082019050610a2d60008301866106de565b610a3a60208301856106de565b610a4760408301846106de565b949350505050565b6000610a5a82610668565b91507fffffffffffffffffffffffffffffffffffffffffffffffffffffffffffffffff8203610a8c57610a8b6109b5565b5b600182019050919050565b7f506f6c696379206973206e6f7420616374697665000000000000000000000000600082015250565b6000610acd601483610912565b9150610ad882610a97565b602082019050919050565b60006020820190508181036000830152610afc81610ac0565b9050919050565b7f4f6e6c7920706f6c696379686f6c6465722063616e2066696c65206120636c6160008201527f696d000000000000000000000000000000000000000000000000000000000000602082015250565b6000610b5f602283610912565b9150610b6a82610b03565b604082019050919050565b60006020820190508181036000830152610b8e81610b52565b905091905056fea26469706673582212209ba2abafa1f3e9c50e92e11586ec5662c8b025b4f78dc8630017e84d6d48daa164736f6c63430008120033",
  "immutableReferences": {},
  "source": "// SPDX-License-Identifier: MIT\npragma solidity 0.8.18;\n\ncontract InsurancePolicy {\n    struct Policy {\n        address policyholder;\n        uint premium;\n        uint coverage;\n        uint expirationDate;\n        bool active;\n    }\n\n    mapping(uint => Policy) public policies;\n    mapping(address => uint[]) public policyholderPortfolios;\n    uint public policyCounter;\n\n    event PolicyCreated(\n        uint indexed policyId,\n        address indexed policyholder,\n        uint premium,\n        uint coverage,\n        uint expirationDate\n    );\n    event ClaimFiled(\n        uint indexed policyId,\n        address indexed policyholder,\n        uint amount\n    );\n\n    constructor() {\n        policyCounter = 0;\n    }\n\n    function createPolicy(\n        uint premium,\n        uint coverage,\n        uint duration\n    ) external returns (uint) {\n        require(coverage <= premium, \"Coverage cannot exceed premium amount\");\n\n        uint expirationDate = block.timestamp + duration;\n\n        Policy memory policy = Policy({\n            policyholder: msg.sender,\n            premium: premium,\n            coverage: coverage,\n            expirationDate: expirationDate,\n            active: true\n        });\n\n        policies[policyCounter] = policy;\n\n        emit PolicyCreated(\n            policyCounter,\n            msg.sender,\n            premium,\n            coverage,\n            expirationDate\n        );\n\n        policyholderPortfolios[msg.sender].push(policyCounter);\n\n        uint createdPolicyId = policyCounter;\n        policyCounter++;\n\n        return createdPolicyId;\n    }\n\n    function fileClaim(uint policyId) external {\n        Policy storage policy = policies[policyId];\n        require(policy.active, \"Policy is not active\");\n        require(\n            policy.policyholder == msg.sender,\n            \"Only policyholder can file a claim\"\n        );\n\n        // Perform claim processing logic here\n\n        emit ClaimFiled(policyId, msg.sender, policy.coverage);\n    }\n\n    function getPolicyholderPortfolio(\n        address policyholder\n    ) external view returns (uint[] memory) {\n        return policyholderPortfolios[policyholder];\n    }\n}\n",
  "sourcePath": "/home/shlok/Desktop/Stuff/SOLANA/Folder/Insurance policy/contracts/InsurancePolicy.sol",
  "compiler": {
    "name": "solc",
    "version": "0.8.18+commit.87f61d96.Emscripten.clang"
  },
  "schemaVersion": "3.4.14",
  "updatedAt": "2023-07-19T14:37:14.619Z",
  "networkType": "ethereum",
  "devdoc": {
    "kind": "dev",
    "methods": {},
    "version": 1
  },
  "userdoc": {
    "kind": "user",
    "methods": {},
    "version": 1
  }
}